{
  "contractName": "RobinhoodCoin",
  "abi": [
    {
      "constant": false,
      "inputs": [
        {
          "name": "_sellPrice",
          "type": "uint256"
        },
        {
          "name": "_buyPrice",
          "type": "uint256"
        }
      ],
      "name": "setPrices",
      "outputs": [],
      "payable": false,
      "stateMutability": "nonpayable",
      "type": "function"
    },
    {
      "constant": true,
      "inputs": [],
      "name": "name",
      "outputs": [
        {
          "name": "",
          "type": "string"
        }
      ],
      "payable": false,
      "stateMutability": "view",
      "type": "function"
    },
    {
      "constant": true,
      "inputs": [],
      "name": "getRichDudesCount",
      "outputs": [
        {
          "name": "",
          "type": "uint256"
        }
      ],
      "payable": false,
      "stateMutability": "view",
      "type": "function"
    },
    {
      "constant": true,
      "inputs": [],
      "name": "totalSupply",
      "outputs": [
        {
          "name": "",
          "type": "uint256"
        }
      ],
      "payable": false,
      "stateMutability": "view",
      "type": "function"
    },
    {
      "constant": true,
      "inputs": [],
      "name": "wealthyMin",
      "outputs": [
        {
          "name": "",
          "type": "uint256"
        }
      ],
      "payable": false,
      "stateMutability": "view",
      "type": "function"
    },
    {
      "constant": true,
      "inputs": [],
      "name": "robberyDifficulty",
      "outputs": [
        {
          "name": "",
          "type": "uint256"
        }
      ],
      "payable": false,
      "stateMutability": "view",
      "type": "function"
    },
    {
      "constant": true,
      "inputs": [],
      "name": "government",
      "outputs": [
        {
          "name": "",
          "type": "address"
        }
      ],
      "payable": false,
      "stateMutability": "view",
      "type": "function"
    },
    {
      "constant": true,
      "inputs": [
        {
          "name": "",
          "type": "address"
        }
      ],
      "name": "balances",
      "outputs": [
        {
          "name": "",
          "type": "uint256"
        }
      ],
      "payable": false,
      "stateMutability": "view",
      "type": "function"
    },
    {
      "constant": true,
      "inputs": [],
      "name": "decimals",
      "outputs": [
        {
          "name": "",
          "type": "uint256"
        }
      ],
      "payable": false,
      "stateMutability": "view",
      "type": "function"
    },
    {
      "constant": false,
      "inputs": [
        {
          "name": "_wei",
          "type": "uint256"
        }
      ],
      "name": "withdrawEther",
      "outputs": [],
      "payable": false,
      "stateMutability": "nonpayable",
      "type": "function"
    },
    {
      "constant": true,
      "inputs": [],
      "name": "baseWage",
      "outputs": [
        {
          "name": "",
          "type": "uint256"
        }
      ],
      "payable": false,
      "stateMutability": "view",
      "type": "function"
    },
    {
      "constant": true,
      "inputs": [
        {
          "name": "_address",
          "type": "address"
        }
      ],
      "name": "getRole",
      "outputs": [
        {
          "name": "",
          "type": "string"
        }
      ],
      "payable": false,
      "stateMutability": "view",
      "type": "function"
    },
    {
      "constant": true,
      "inputs": [],
      "name": "minBalanceForAccounts",
      "outputs": [
        {
          "name": "",
          "type": "uint256"
        }
      ],
      "payable": false,
      "stateMutability": "view",
      "type": "function"
    },
    {
      "constant": false,
      "inputs": [],
      "name": "buyRobinhoodCoin",
      "outputs": [
        {
          "name": "amount",
          "type": "uint256"
        }
      ],
      "payable": true,
      "stateMutability": "payable",
      "type": "function"
    },
    {
      "constant": true,
      "inputs": [],
      "name": "sellPrice",
      "outputs": [
        {
          "name": "",
          "type": "uint256"
        }
      ],
      "payable": false,
      "stateMutability": "view",
      "type": "function"
    },
    {
      "constant": true,
      "inputs": [],
      "name": "currentChallenge",
      "outputs": [
        {
          "name": "",
          "type": "bytes32"
        }
      ],
      "payable": false,
      "stateMutability": "view",
      "type": "function"
    },
    {
      "constant": true,
      "inputs": [
        {
          "name": "",
          "type": "uint256"
        }
      ],
      "name": "elites",
      "outputs": [
        {
          "name": "",
          "type": "address"
        }
      ],
      "payable": false,
      "stateMutability": "view",
      "type": "function"
    },
    {
      "constant": false,
      "inputs": [
        {
          "name": "_newTaxPercent",
          "type": "uint256"
        }
      ],
      "name": "setTaxPercent",
      "outputs": [],
      "payable": false,
      "stateMutability": "nonpayable",
      "type": "function"
    },
    {
      "constant": true,
      "inputs": [
        {
          "name": "_owner",
          "type": "address"
        }
      ],
      "name": "balanceOf",
      "outputs": [
        {
          "name": "balance",
          "type": "uint256"
        }
      ],
      "payable": false,
      "stateMutability": "view",
      "type": "function"
    },
    {
      "constant": true,
      "inputs": [],
      "name": "taxPercent",
      "outputs": [
        {
          "name": "",
          "type": "uint256"
        }
      ],
      "payable": false,
      "stateMutability": "view",
      "type": "function"
    },
    {
      "constant": false,
      "inputs": [
        {
          "name": "_nonce",
          "type": "uint256"
        }
      ],
      "name": "GetPaid",
      "outputs": [
        {
          "name": "reward",
          "type": "uint256"
        }
      ],
      "payable": false,
      "stateMutability": "nonpayable",
      "type": "function"
    },
    {
      "constant": true,
      "inputs": [],
      "name": "buyPrice",
      "outputs": [
        {
          "name": "",
          "type": "uint256"
        }
      ],
      "payable": false,
      "stateMutability": "view",
      "type": "function"
    },
    {
      "constant": true,
      "inputs": [],
      "name": "owner",
      "outputs": [
        {
          "name": "",
          "type": "address"
        }
      ],
      "payable": false,
      "stateMutability": "view",
      "type": "function"
    },
    {
      "constant": true,
      "inputs": [
        {
          "name": "",
          "type": "uint256"
        }
      ],
      "name": "richDudes",
      "outputs": [
        {
          "name": "",
          "type": "address"
        }
      ],
      "payable": false,
      "stateMutability": "view",
      "type": "function"
    },
    {
      "constant": true,
      "inputs": [],
      "name": "getElitesCount",
      "outputs": [
        {
          "name": "",
          "type": "uint256"
        }
      ],
      "payable": false,
      "stateMutability": "view",
      "type": "function"
    },
    {
      "constant": true,
      "inputs": [],
      "name": "symbol",
      "outputs": [
        {
          "name": "",
          "type": "string"
        }
      ],
      "payable": false,
      "stateMutability": "view",
      "type": "function"
    },
    {
      "constant": true,
      "inputs": [],
      "name": "eliteMin",
      "outputs": [
        {
          "name": "",
          "type": "uint256"
        }
      ],
      "payable": false,
      "stateMutability": "view",
      "type": "function"
    },
    {
      "constant": false,
      "inputs": [
        {
          "name": "_to",
          "type": "address"
        },
        {
          "name": "_value",
          "type": "uint256"
        }
      ],
      "name": "transfer",
      "outputs": [
        {
          "name": "",
          "type": "bool"
        }
      ],
      "payable": false,
      "stateMutability": "nonpayable",
      "type": "function"
    },
    {
      "constant": true,
      "inputs": [],
      "name": "timeOfLastPayday",
      "outputs": [
        {
          "name": "",
          "type": "uint256"
        }
      ],
      "payable": false,
      "stateMutability": "view",
      "type": "function"
    },
    {
      "constant": false,
      "inputs": [
        {
          "name": "_minBalance",
          "type": "uint256"
        }
      ],
      "name": "setMinBalance",
      "outputs": [],
      "payable": false,
      "stateMutability": "nonpayable",
      "type": "function"
    },
    {
      "constant": true,
      "inputs": [],
      "name": "king",
      "outputs": [
        {
          "name": "",
          "type": "address"
        }
      ],
      "payable": false,
      "stateMutability": "view",
      "type": "function"
    },
    {
      "constant": true,
      "inputs": [],
      "name": "paydayDifficulty",
      "outputs": [
        {
          "name": "",
          "type": "uint256"
        }
      ],
      "payable": false,
      "stateMutability": "view",
      "type": "function"
    },
    {
      "constant": true,
      "inputs": [
        {
          "name": "",
          "type": "address"
        }
      ],
      "name": "elitesTime",
      "outputs": [
        {
          "name": "",
          "type": "uint256"
        }
      ],
      "payable": false,
      "stateMutability": "view",
      "type": "function"
    },
    {
      "constant": true,
      "inputs": [],
      "name": "kingMin",
      "outputs": [
        {
          "name": "",
          "type": "uint256"
        }
      ],
      "payable": false,
      "stateMutability": "view",
      "type": "function"
    },
    {
      "constant": true,
      "inputs": [
        {
          "name": "",
          "type": "address"
        }
      ],
      "name": "wealthyTime",
      "outputs": [
        {
          "name": "",
          "type": "uint256"
        }
      ],
      "payable": false,
      "stateMutability": "view",
      "type": "function"
    },
    {
      "constant": false,
      "inputs": [
        {
          "name": "_nonce",
          "type": "uint256"
        }
      ],
      "name": "TakeFromTheRich",
      "outputs": [
        {
          "name": "reward",
          "type": "uint256"
        }
      ],
      "payable": true,
      "stateMutability": "payable",
      "type": "function"
    },
    {
      "constant": true,
      "inputs": [],
      "name": "timeOfLastRobbery",
      "outputs": [
        {
          "name": "",
          "type": "uint256"
        }
      ],
      "payable": false,
      "stateMutability": "view",
      "type": "function"
    },
    {
      "constant": false,
      "inputs": [
        {
          "name": "newOwner",
          "type": "address"
        }
      ],
      "name": "transferOwnership",
      "outputs": [],
      "payable": false,
      "stateMutability": "nonpayable",
      "type": "function"
    },
    {
      "inputs": [],
      "payable": false,
      "stateMutability": "nonpayable",
      "type": "constructor"
    },
    {
      "anonymous": false,
      "inputs": [
        {
          "indexed": true,
          "name": "_victim",
          "type": "address"
        },
        {
          "indexed": true,
          "name": "_thief",
          "type": "address"
        },
        {
          "indexed": false,
          "name": "_amountStolen",
          "type": "uint256"
        }
      ],
      "name": "Robbery",
      "type": "event"
    },
    {
      "anonymous": false,
      "inputs": [
        {
          "indexed": true,
          "name": "_government",
          "type": "address"
        },
        {
          "indexed": true,
          "name": "_worker",
          "type": "address"
        },
        {
          "indexed": false,
          "name": "_amountPaid",
          "type": "uint256"
        }
      ],
      "name": "Payday",
      "type": "event"
    },
    {
      "anonymous": false,
      "inputs": [
        {
          "indexed": true,
          "name": "_from",
          "type": "address"
        },
        {
          "indexed": true,
          "name": "_to",
          "type": "address"
        },
        {
          "indexed": false,
          "name": "_value",
          "type": "uint256"
        }
      ],
      "name": "Transfer",
      "type": "event"
    },
    {
      "anonymous": false,
      "inputs": [
        {
          "indexed": true,
          "name": "_taxPayer",
          "type": "address"
        },
        {
          "indexed": true,
          "name": "_taxCollector",
          "type": "address"
        },
        {
          "indexed": false,
          "name": "_value",
          "type": "uint256"
        }
      ],
      "name": "Tax",
      "type": "event"
    },
    {
      "anonymous": false,
      "inputs": [
        {
          "indexed": true,
          "name": "_winner",
          "type": "address"
        }
      ],
      "name": "Elite",
      "type": "event"
    }
  ],
  "bytecode": "0x60606040526040805190810160405280600e81526020017f526f62696e686f6f6420436f696e0000000000000000000000000000000000008152506002908051906020019062000051929190620003ff565b506040805190810160405280600381526020017f5248430000000000000000000000000000000000000000000000000000000000815250600390805190602001906200009f929190620003ff565b50600060045564e8d4a510006005556001600a556103e8600b556064600160055402811515620000cb57fe5b04600c556064603360055402811515620000e157fe5b04600d556064605060055402811515620000f757fe5b04600e557fffffffffffffffffffffffffffffffffffffffffffffffffffffffffffffffff6014557fffffffffffffffffffffffffffffffffffffffffffffffffffffffffffffffff60155566038d7ea4c6800060165566038d7ea4c680006017556611c37937e0800060185534156200017057600080fd5b336000806101000a81548173ffffffffffffffffffffffffffffffffffffffff021916908373ffffffffffffffffffffffffffffffffffffffff1602179055506002600554811515620001bf57fe5b04600160003073ffffffffffffffffffffffffffffffffffffffff1673ffffffffffffffffffffffffffffffffffffffff1681526020019081526020016000208190555060026005548115156200021257fe5b04600160003373ffffffffffffffffffffffffffffffffffffffff1673ffffffffffffffffffffffffffffffffffffffff168152602001908152602001600020819055506200027533620002bd6401000000000262001e49176401000000009004565b5030600860006101000a81548173ffffffffffffffffffffffffffffffffffffffff021916908373ffffffffffffffffffffffffffffffffffffffff160217905550620004dd565b6000620002de82620003a164010000000002620026cc176401000000009004565b15620002ee57600190506200039c565b42600f60008473ffffffffffffffffffffffffffffffffffffffff1673ffffffffffffffffffffffffffffffffffffffff168152602001908152602001600020819055506006805480600101828162000348919062000486565b9160005260206000209001600084909190916101000a81548173ffffffffffffffffffffffffffffffffffffffff021916908373ffffffffffffffffffffffffffffffffffffffff16021790555050600190505b919050565b600080600f60008473ffffffffffffffffffffffffffffffffffffffff1673ffffffffffffffffffffffffffffffffffffffff168152602001908152602001600020541115620003f55760019050620003fa565b600090505b919050565b828054600181600116156101000203166002900490600052602060002090601f016020900481019282601f106200044257805160ff191683800117855562000473565b8280016001018555821562000473579182015b828111156200047257825182559160200191906001019062000455565b5b509050620004829190620004b5565b5090565b815481835581811511620004b057818360005260206000209182019101620004af9190620004b5565b5b505050565b620004da91905b80821115620004d6576000816000905550600101620004bc565b5090565b90565b612c5880620004ed6000396000f3006060604052600436106101d8576000357c0100000000000000000000000000000000000000000000000000000000900463ffffffff16806305fefda7146101dd57806306fdde03146102095780630f2edce61461029757806318160ddd146102c05780631ed75aa5146102e95780631ede46af146103125780632672f5261461033b57806327e235e314610390578063313ce567146103dd5780633bed33ce1461040657806343102a0614610429578063442767331461045257806347f1d8d71461050457806349dd342e1461052d5780634b7503341461054b57806351bdd58514610574578063535c4144146105a5578063611783861461060857806370a082311461062b5780637541f41c146106785780638575fbc0146106a15780638620410b146106d85780638da5cb5b146107015780638f51fb121461075657806391b5b9b6146107b957806395d89b41146107e2578063973ff37314610870578063a9059cbb14610899578063ba913a24146108f3578063c91d956c1461091c578063cc181ca81461093f578063d5409a8014610994578063d6f9fa3c146109bd578063dcc2a6d314610a0a578063e17d6e4814610a33578063e46bae8d14610a80578063ee0ff84f14610aac578063f2fde38b14610ad5575b600080fd5b34156101e857600080fd5b6102076004808035906020019091908035906020019091905050610b0e565b005b341561021457600080fd5b61021c610b7b565b6040518080602001828103825283818151815260200191508051906020019080838360005b8381101561025c578082015181840152602081019050610241565b50505050905090810190601f1680156102895780820380516001836020036101000a031916815260200191505b509250505060405180910390f35b34156102a257600080fd5b6102aa610c19565b6040518082815260200191505060405180910390f35b34156102cb57600080fd5b6102d3610c26565b6040518082815260200191505060405180910390f35b34156102f457600080fd5b6102fc610c2c565b6040518082815260200191505060405180910390f35b341561031d57600080fd5b610325610c32565b6040518082815260200191505060405180910390f35b341561034657600080fd5b61034e610c38565b604051808273ffffffffffffffffffffffffffffffffffffffff1673ffffffffffffffffffffffffffffffffffffffff16815260200191505060405180910390f35b341561039b57600080fd5b6103c7600480803573ffffffffffffffffffffffffffffffffffffffff16906020019091905050610c5e565b6040518082815260200191505060405180910390f35b34156103e857600080fd5b6103f0610c76565b6040518082815260200191505060405180910390f35b341561041157600080fd5b6104276004808035906020019091905050610c7c565b005b341561043457600080fd5b61043c610d1a565b6040518082815260200191505060405180910390f35b341561045d57600080fd5b610489600480803573ffffffffffffffffffffffffffffffffffffffff16906020019091905050610d20565b6040518080602001828103825283818151815260200191508051906020019080838360005b838110156104c95780820151818401526020810190506104ae565b50505050905090810190601f1680156104f65780820380516001836020036101000a031916815260200191505b509250505060405180910390f35b341561050f57600080fd5b610517610f98565b6040518082815260200191505060405180910390f35b610535610f9e565b6040518082815260200191505060405180910390f35b341561055657600080fd5b61055e611103565b6040518082815260200191505060405180910390f35b341561057f57600080fd5b610587611109565b60405180826000191660001916815260200191505060405180910390f35b34156105b057600080fd5b6105c6600480803590602001909190505061110f565b604051808273ffffffffffffffffffffffffffffffffffffffff1673ffffffffffffffffffffffffffffffffffffffff16815260200191505060405180910390f35b341561061357600080fd5b610629600480803590602001909190505061114e565b005b341561063657600080fd5b610662600480803573ffffffffffffffffffffffffffffffffffffffff16906020019091905050611224565b6040518082815260200191505060405180910390f35b341561068357600080fd5b61068b61126d565b6040518082815260200191505060405180910390f35b34156106ac57600080fd5b6106c26004808035906020019091905050611273565b6040518082815260200191505060405180910390f35b34156106e357600080fd5b6106eb6114e3565b6040518082815260200191505060405180910390f35b341561070c57600080fd5b6107146114e9565b604051808273ffffffffffffffffffffffffffffffffffffffff1673ffffffffffffffffffffffffffffffffffffffff16815260200191505060405180910390f35b341561076157600080fd5b610777600480803590602001909190505061150e565b604051808273ffffffffffffffffffffffffffffffffffffffff1673ffffffffffffffffffffffffffffffffffffffff16815260200191505060405180910390f35b34156107c457600080fd5b6107cc61154d565b6040518082815260200191505060405180910390f35b34156107ed57600080fd5b6107f561155a565b6040518080602001828103825283818151815260200191508051906020019080838360005b8381101561083557808201518184015260208101905061081a565b50505050905090810190601f1680156108625780820380516001836020036101000a031916815260200191505b509250505060405180910390f35b341561087b57600080fd5b6108836115f8565b6040518082815260200191505060405180910390f35b34156108a457600080fd5b6108d9600480803573ffffffffffffffffffffffffffffffffffffffff169060200190919080359060200190919050506115fe565b604051808215151515815260200191505060405180910390f35b34156108fe57600080fd5b610906611823565b6040518082815260200191505060405180910390f35b341561092757600080fd5b61093d6004808035906020019091905050611829565b005b341561094a57600080fd5b610952611897565b604051808273ffffffffffffffffffffffffffffffffffffffff1673ffffffffffffffffffffffffffffffffffffffff16815260200191505060405180910390f35b341561099f57600080fd5b6109a76118bd565b6040518082815260200191505060405180910390f35b34156109c857600080fd5b6109f4600480803573ffffffffffffffffffffffffffffffffffffffff169060200190919050506118c3565b6040518082815260200191505060405180910390f35b3415610a1557600080fd5b610a1d6118db565b6040518082815260200191505060405180910390f35b3415610a3e57600080fd5b610a6a600480803573ffffffffffffffffffffffffffffffffffffffff169060200190919050506118e1565b6040518082815260200191505060405180910390f35b610a9660048080359060200190919050506118f9565b6040518082815260200191505060405180910390f35b3415610ab757600080fd5b610abf611c6d565b6040518082815260200191505060405180910390f35b3415610ae057600080fd5b610b0c600480803573ffffffffffffffffffffffffffffffffffffffff16906020019091905050611c73565b005b6000809054906101000a900473ffffffffffffffffffffffffffffffffffffffff1673ffffffffffffffffffffffffffffffffffffffff163373ffffffffffffffffffffffffffffffffffffffff16141515610b6957600080fd5b81601681905550806017819055505050565b60028054600181600116156101000203166002900480601f016020809104026020016040519081016040528092919081815260200182805460018160011615610100020316600290048015610c115780601f10610be657610100808354040283529160200191610c11565b820191906000526020600020905b815481529060010190602001808311610bf457829003601f168201915b505050505081565b6000600680549050905090565b60055481565b600c5481565b60145481565b600860009054906101000a900473ffffffffffffffffffffffffffffffffffffffff1681565b60016020528060005260406000206000915090505481565b60045481565b6000809054906101000a900473ffffffffffffffffffffffffffffffffffffffff1673ffffffffffffffffffffffffffffffffffffffff163373ffffffffffffffffffffffffffffffffffffffff16141515610cd757600080fd5b3373ffffffffffffffffffffffffffffffffffffffff166108fc829081150290604051600060405180830381858888f193505050501515610d1757600080fd5b50565b600b5481565b610d28612b9b565b600860009054906101000a900473ffffffffffffffffffffffffffffffffffffffff1673ffffffffffffffffffffffffffffffffffffffff168273ffffffffffffffffffffffffffffffffffffffff161415610dbb576040805190810160405280600a81526020017f676f7665726e6d656e74000000000000000000000000000000000000000000008152509050610f93565b600960009054906101000a900473ffffffffffffffffffffffffffffffffffffffff1673ffffffffffffffffffffffffffffffffffffffff168273ffffffffffffffffffffffffffffffffffffffff161415610e4e576040805190810160405280600481526020017f6b696e67000000000000000000000000000000000000000000000000000000008152509050610f93565b6000601060008473ffffffffffffffffffffffffffffffffffffffff1673ffffffffffffffffffffffffffffffffffffffff16815260200190815260200160002054141515610ed4576040805190810160405280600581526020017f656c6974650000000000000000000000000000000000000000000000000000008152509050610f93565b6000600f60008473ffffffffffffffffffffffffffffffffffffffff1673ffffffffffffffffffffffffffffffffffffffff16815260200190815260200160002054141515610f5a576040805190810160405280600781526020017f7765616c746879000000000000000000000000000000000000000000000000008152509050610f93565b6040805190810160405280600781526020017f70656173616e740000000000000000000000000000000000000000000000000081525090505b919050565b60185481565b600060175434811515610fad57fe5b04905080600160003073ffffffffffffffffffffffffffffffffffffffff1673ffffffffffffffffffffffffffffffffffffffff1681526020019081526020016000205410151515610ffe57600080fd5b80600160003373ffffffffffffffffffffffffffffffffffffffff1673ffffffffffffffffffffffffffffffffffffffff1681526020019081526020016000206000828254019250508190555080600160003073ffffffffffffffffffffffffffffffffffffffff1673ffffffffffffffffffffffffffffffffffffffff168152602001908152602001600020600082825403925050819055503373ffffffffffffffffffffffffffffffffffffffff163073ffffffffffffffffffffffffffffffffffffffff167fddf252ad1be2c89b69c2b068fc378daa952ba7f163c4a11628f55a4df523b3ef836040518082815260200191505060405180910390a380905090565b60165481565b60115481565b60078181548110151561111e57fe5b90600052602060002090016000915054906101000a900473ffffffffffffffffffffffffffffffffffffffff1681565b6000809054906101000a900473ffffffffffffffffffffffffffffffffffffffff1673ffffffffffffffffffffffffffffffffffffffff163373ffffffffffffffffffffffffffffffffffffffff1614806111f65750600960009054906101000a900473ffffffffffffffffffffffffffffffffffffffff1673ffffffffffffffffffffffffffffffffffffffff163373ffffffffffffffffffffffffffffffffffffffff16145b151561120157600080fd5b60008110806112105750606481115b1561121a57600080fd5b80600a8190555050565b6000600160008373ffffffffffffffffffffffffffffffffffffffff1673ffffffffffffffffffffffffffffffffffffffff168152602001908152602001600020549050919050565b600a5481565b6000600860009054906101000a900473ffffffffffffffffffffffffffffffffffffffff1673ffffffffffffffffffffffffffffffffffffffff163373ffffffffffffffffffffffffffffffffffffffff1614156112d057600080fd5b600060016000600860009054906101000a900473ffffffffffffffffffffffffffffffffffffffff1673ffffffffffffffffffffffffffffffffffffffff1673ffffffffffffffffffffffffffffffffffffffff16815260200190815260200160002054141561133f57600080fd5b61136b600860009054906101000a900473ffffffffffffffffffffffffffffffffffffffff1683611d4d565b905042601381905550600c54600160003373ffffffffffffffffffffffffffffffffffffffff1673ffffffffffffffffffffffffffffffffffffffff168152602001908152602001600020541015156113c9576113c733611e49565b505b600d54600160003373ffffffffffffffffffffffffffffffffffffffff1673ffffffffffffffffffffffffffffffffffffffff1681526020019081526020016000205411156114545733600960006101000a81548173ffffffffffffffffffffffffffffffffffffffff021916908373ffffffffffffffffffffffffffffffffffffffff1602179055505b3373ffffffffffffffffffffffffffffffffffffffff16600860009054906101000a900473ffffffffffffffffffffffffffffffffffffffff1673ffffffffffffffffffffffffffffffffffffffff167fc8bfe71bdb4ab20e68fb0c2ce6dbc68039717138846afd2d60a8af3acff6a09a836040518082815260200191505060405180910390a3809050919050565b60175481565b6000809054906101000a900473ffffffffffffffffffffffffffffffffffffffff1681565b60068181548110151561151d57fe5b90600052602060002090016000915054906101000a900473ffffffffffffffffffffffffffffffffffffffff1681565b6000600780549050905090565b60038054600181600116156101000203166002900480601f0160208091040260200160405190810160405280929190818152602001828054600181600116156101000203166002900480156115f05780601f106115c5576101008083540402835291602001916115f0565b820191906000526020600020905b8154815290600101906020018083116115d357829003601f168201915b505050505081565b600e5481565b600061160b338484611f13565b50611616338361232b565b50600c54600160003373ffffffffffffffffffffffffffffffffffffffff1673ffffffffffffffffffffffffffffffffffffffff16815260200190815260200160002054101561166b57611669336124e3565b505b600c54600160008573ffffffffffffffffffffffffffffffffffffffff1673ffffffffffffffffffffffffffffffffffffffff168152602001908152602001600020541015156116c0576116be83611e49565b505b600960009054906101000a900473ffffffffffffffffffffffffffffffffffffffff1673ffffffffffffffffffffffffffffffffffffffff163373ffffffffffffffffffffffffffffffffffffffff1614801561176c5750606460326005540281151561172957fe5b04600160003373ffffffffffffffffffffffffffffffffffffffff1673ffffffffffffffffffffffffffffffffffffffff16815260200190815260200160002054105b156117b4576000600960006101000a81548173ffffffffffffffffffffffffffffffffffffffff021916908373ffffffffffffffffffffffffffffffffffffffff1602179055505b8273ffffffffffffffffffffffffffffffffffffffff163373ffffffffffffffffffffffffffffffffffffffff167fddf252ad1be2c89b69c2b068fc378daa952ba7f163c4a11628f55a4df523b3ef846040518082815260200191505060405180910390a36001905092915050565b60135481565b6000809054906101000a900473ffffffffffffffffffffffffffffffffffffffff1673ffffffffffffffffffffffffffffffffffffffff163373ffffffffffffffffffffffffffffffffffffffff1614151561188457600080fd5b66038d7ea4c68000810260188190555050565b600960009054906101000a900473ffffffffffffffffffffffffffffffffffffffff1681565b60155481565b60106020528060005260406000206000915090505481565b600d5481565b600f6020528060005260406000206000915090505481565b60008060011515611909336126cc565b1515141561191657600080fd5b6001600680549050101561192957600080fd5b600680805490504281151561193a57fe5b0681548110151561194757fe5b906000526020600020900160009054906101000a900473ffffffffffffffffffffffffffffffffffffffff16905061197f8184611d4d565b915042601281905550600c54600160003373ffffffffffffffffffffffffffffffffffffffff1673ffffffffffffffffffffffffffffffffffffffff168152602001908152602001600020541015156119dd576119db33611e49565b505b600c54600160008373ffffffffffffffffffffffffffffffffffffffff1673ffffffffffffffffffffffffffffffffffffffff168152602001908152602001600020541015611a3157611a2f816124e3565b505b600960009054906101000a900473ffffffffffffffffffffffffffffffffffffffff1673ffffffffffffffffffffffffffffffffffffffff168173ffffffffffffffffffffffffffffffffffffffff16148015611add57506064603260055402811515611a9a57fe5b04600160008373ffffffffffffffffffffffffffffffffffffffff1673ffffffffffffffffffffffffffffffffffffffff16815260200190815260200160002054105b15611b25576000600960006101000a81548173ffffffffffffffffffffffffffffffffffffffff021916908373ffffffffffffffffffffffffffffffffffffffff1602179055505b6064603260055402811515611b3657fe5b04600160003373ffffffffffffffffffffffffffffffffffffffff1673ffffffffffffffffffffffffffffffffffffffff168152602001908152602001600020541115611bbf5733600960006101000a81548173ffffffffffffffffffffffffffffffffffffffff021916908373ffffffffffffffffffffffffffffffffffffffff1602179055505b8073ffffffffffffffffffffffffffffffffffffffff166108fc349081150290604051600060405180830381858888f193505050501515611bff57600080fd5b3373ffffffffffffffffffffffffffffffffffffffff168173ffffffffffffffffffffffffffffffffffffffff167f3df12ea1eaf631252e13d74a014982d0109c220eb7de99d132fdba287659676c846040518082815260200191505060405180910390a381915050919050565b60125481565b6000809054906101000a900473ffffffffffffffffffffffffffffffffffffffff1673ffffffffffffffffffffffffffffffffffffffff163373ffffffffffffffffffffffffffffffffffffffff16141515611cce57600080fd5b600073ffffffffffffffffffffffffffffffffffffffff168173ffffffffffffffffffffffffffffffffffffffff1614151515611d0a57600080fd5b806000806101000a81548173ffffffffffffffffffffffffffffffffffffffff021916908373ffffffffffffffffffffffffffffffffffffffff16021790555050565b6000806000806000611d5e87612728565b9350611d69876127ac565b9250856011546040518083815260200182600019166000191681526020019250505060405180910390209150836001026000191682600019161115611dad57600080fd5b82420390506005811015611dc057600080fd5b611dc987612830565b9450611dd6873387611f13565b506001610258828602811515611de857fe5b04019350611df68488612940565b856011546001430340604051808481526020018360001916600019168152602001826000191660001916815260200193505050506040518091039020601181600019169055508494505050505092915050565b6000611e54826126cc565b15611e625760019050611f0e565b42600f60008473ffffffffffffffffffffffffffffffffffffffff1673ffffffffffffffffffffffffffffffffffffffff1681526020019081526020016000208190555060068054806001018281611eba9190612baf565b9160005260206000209001600084909190916101000a81548173ffffffffffffffffffffffffffffffffffffffff021916908373ffffffffffffffffffffffffffffffffffffffff16021790555050600190505b919050565b60006018543373ffffffffffffffffffffffffffffffffffffffff16311015611f6957611f676016543373ffffffffffffffffffffffffffffffffffffffff163160185403811515611f6157fe5b046129c6565b505b60008373ffffffffffffffffffffffffffffffffffffffff161415611f8d57600080fd5b81600160008673ffffffffffffffffffffffffffffffffffffffff1673ffffffffffffffffffffffffffffffffffffffff168152602001908152602001600020541015611fd957600080fd5b600160008473ffffffffffffffffffffffffffffffffffffffff1673ffffffffffffffffffffffffffffffffffffffff1681526020019081526020016000205461206b83600160008773ffffffffffffffffffffffffffffffffffffffff1673ffffffffffffffffffffffffffffffffffffffff16815260200190815260200160002054612b6490919063ffffffff16565b101561207657600080fd5b6120c882600160008673ffffffffffffffffffffffffffffffffffffffff1673ffffffffffffffffffffffffffffffffffffffff16815260200190815260200160002054612b6490919063ffffffff16565b600160008573ffffffffffffffffffffffffffffffffffffffff1673ffffffffffffffffffffffffffffffffffffffff1681526020019081526020016000208190555061215d82600160008773ffffffffffffffffffffffffffffffffffffffff1673ffffffffffffffffffffffffffffffffffffffff16815260200190815260200160002054612b8290919063ffffffff16565b600160008673ffffffffffffffffffffffffffffffffffffffff1673ffffffffffffffffffffffffffffffffffffffff16815260200190815260200160002081905550600e54600160008573ffffffffffffffffffffffffffffffffffffffff1673ffffffffffffffffffffffffffffffffffffffff168152602001908152602001600020541015801561223057506000601060008573ffffffffffffffffffffffffffffffffffffffff1673ffffffffffffffffffffffffffffffffffffffff16815260200190815260200160002054145b156123205742601060008573ffffffffffffffffffffffffffffffffffffffff1673ffffffffffffffffffffffffffffffffffffffff168152602001908152602001600020819055506007805480600101828161228d9190612baf565b9160005260206000209001600085909190916101000a81548173ffffffffffffffffffffffffffffffffffffffff021916908373ffffffffffffffffffffffffffffffffffffffff160217905550508273ffffffffffffffffffffffffffffffffffffffff167f9e96fb86e2cfc0c8dc482de30016f761ab5f1476c530f712286db8e37d0883b760405160405180910390a25b600190509392505050565b600080600080600960009054906101000a900473ffffffffffffffffffffffffffffffffffffffff1673ffffffffffffffffffffffffffffffffffffffff161461239757600960009054906101000a900473ffffffffffffffffffffffffffffffffffffffff166123bb565b600860009054906101000a900473ffffffffffffffffffffffffffffffffffffffff165b91508173ffffffffffffffffffffffffffffffffffffffff168573ffffffffffffffffffffffffffffffffffffffff1614156123fa57600192506124db565b6000600a54141561240e57600192506124db565b60008273ffffffffffffffffffffffffffffffffffffffff16141561243657600192506124db565b6064600a54850281151561244657fe5b04905060008114801561245b57506000600a54115b1561246557600190505b612470858383611f13565b508173ffffffffffffffffffffffffffffffffffffffff168573ffffffffffffffffffffffffffffffffffffffff167fb4a4e935856b6f5a5da9e94d865b3957d0377d969c8cd9d552a0db5abab7303f836040518082815260200191505060405180910390a3600192505b505092915050565b60008060008091505b600680549050821015612585578373ffffffffffffffffffffffffffffffffffffffff1660068381548110151561251f57fe5b906000526020600020900160009054906101000a900473ffffffffffffffffffffffffffffffffffffffff1673ffffffffffffffffffffffffffffffffffffffff16141561256f57819050612578565b600092506126c5565b81806001019250506124ec565b600660016006805490500381548110151561259c57fe5b906000526020600020900160009054906101000a900473ffffffffffffffffffffffffffffffffffffffff166006828154811015156125d757fe5b906000526020600020900160006101000a81548173ffffffffffffffffffffffffffffffffffffffff021916908373ffffffffffffffffffffffffffffffffffffffff160217905550600660016006805490500381548110151561263757fe5b906000526020600020900160006101000a81549073ffffffffffffffffffffffffffffffffffffffff0219169055600680548091906001900361267a9190612bdb565b506000600f60008673ffffffffffffffffffffffffffffffffffffffff1673ffffffffffffffffffffffffffffffffffffffff16815260200190815260200160002081905550600192505b5050919050565b600080600f60008473ffffffffffffffffffffffffffffffffffffffff1673ffffffffffffffffffffffffffffffffffffffff16815260200190815260200160002054111561271e5760019050612723565b600090505b919050565b6000600860009054906101000a900473ffffffffffffffffffffffffffffffffffffffff1673ffffffffffffffffffffffffffffffffffffffff168273ffffffffffffffffffffffffffffffffffffffff16141561278a5760155490506127a7565b612793826126cc565b156127a25760145490506127a7565b600080fd5b919050565b6000600860009054906101000a900473ffffffffffffffffffffffffffffffffffffffff1673ffffffffffffffffffffffffffffffffffffffff168273ffffffffffffffffffffffffffffffffffffffff16141561280e57601354905061282b565b612817826126cc565b1561282657601254905061282b565b600080fd5b919050565b600080600080600080600860009054906101000a900473ffffffffffffffffffffffffffffffffffffffff1673ffffffffffffffffffffffffffffffffffffffff168773ffffffffffffffffffffffffffffffffffffffff16141561289957600b549550612936565b600160008873ffffffffffffffffffffffffffffffffffffffff1673ffffffffffffffffffffffffffffffffffffffff1681526020019081526020016000205494506064600186028115156128ea57fe5b0493506064606386028115156128fc57fe5b04925082341061290c578261291b565b6017543481151561291957fe5b045b915081840190508481111561293257849550612936565b8095505b5050505050919050565b600860009054906101000a900473ffffffffffffffffffffffffffffffffffffffff1673ffffffffffffffffffffffffffffffffffffffff168173ffffffffffffffffffffffffffffffffffffffff1614156129a257816015819055506129c2565b6129ab816126cc565b156129bc57816014819055506129c1565b600080fd5b5b5050565b600081600160003373ffffffffffffffffffffffffffffffffffffffff1673ffffffffffffffffffffffffffffffffffffffff1681526020019081526020016000205410151515612a1657600080fd5b81600160003073ffffffffffffffffffffffffffffffffffffffff1673ffffffffffffffffffffffffffffffffffffffff1681526020019081526020016000206000828254019250508190555081600160003373ffffffffffffffffffffffffffffffffffffffff1673ffffffffffffffffffffffffffffffffffffffff16815260200190815260200160002060008282540392505081905550601654820290503373ffffffffffffffffffffffffffffffffffffffff166108fc829081150290604051600060405180830381858888f193505050501515612af757600080fd5b3073ffffffffffffffffffffffffffffffffffffffff163373ffffffffffffffffffffffffffffffffffffffff167fddf252ad1be2c89b69c2b068fc378daa952ba7f163c4a11628f55a4df523b3ef846040518082815260200191505060405180910390a3809050919050565b6000808284019050838110151515612b7857fe5b8091505092915050565b6000828211151515612b9057fe5b818303905092915050565b602060405190810160405280600081525090565b815481835581811511612bd657818360005260206000209182019101612bd59190612c07565b5b505050565b815481835581811511612c0257818360005260206000209182019101612c019190612c07565b5b505050565b612c2991905b80821115612c25576000816000905550600101612c0d565b5090565b905600a165627a7a7230582014d61bd1802e3fef6bf854cbd6976ea1f39cb6dfa6438534a2a45992efc899850029",
  "source": "pragma solidity ^0.4.13;\n\nimport './SafeMath.sol';\nimport './Ownable.sol';\n\n/**\n * @title RobinhoodCoin\n * @dev Really cool C\n */\ncontract RobinhoodCoin is Ownable {\n    using SafeMath for uint256;\n\n    event Robbery(address indexed _victim, address indexed _thief, uint256 _amountStolen);\n    event Payday(address indexed _government, address indexed _worker, uint256 _amountPaid);\n    event Transfer(address indexed _from, address indexed _to, uint256 _value);\n    event Tax(address indexed _taxPayer, address indexed _taxCollector, uint256 _value);\n    event Elite(address indexed _winner);\n\n    mapping(address => uint256) public balances;\n\n    string public name = \"Robinhood Coin\";\n    string public symbol = \"RHC\";\n    uint256 public decimals = 0;\n    uint256 public totalSupply = 1000000000000;\n\n    address[] public richDudes; // Addresses considered wealthy\n    address[] public elites; // Addresses considered elite\n    address public government;  // Address that collects the tax\n    address public king;        // Address with more than 50% of total supply\n    uint256 public taxPercent = 1; // Percent taxed on all transfers\n    uint256 public baseWage = 1000; // Amount received from government mine\n    uint256 public wealthyMin = totalSupply * 1 / 100; // Minimum amount to be considered wealthy\n    uint256 public kingMin = totalSupply * 51 / 100;\n    uint256 public eliteMin = totalSupply * 80 / 100;\n    mapping(address => uint) public wealthyTime; // Times addresses became elite\n    mapping(address => uint) public elitesTime; // Times addresses became elite\n\n    /* Mining variables */\n    bytes32 public currentChallenge;\n    uint public timeOfLastRobbery; // time of last challenge solved\n    uint public timeOfLastPayday; // time of last challenge solved\n    uint256 public robberyDifficulty = 2**256 - 1; // Difficulty starts low\n    uint256 public paydayDifficulty = 2**256 - 1; // Difficulty starts low\n\n    /* exchange prices for token*/\n    uint256 public sellPrice = 1 finney;\n    uint256 public buyPrice = 1 finney;\n    uint256 public minBalanceForAccounts = 5 finney;\n\n    /**\n    * @dev Contructor that gives msg.sender all of existing tokens.\n    */\n    function RobinhoodCoin() public {\n        balances[this] = totalSupply/2;\n        balances[msg.sender] = totalSupply/2;\n        markAsRich(msg.sender);\n        government = this;\n    }\n\n    /**\n    * @dev Gets the balance of the specified address.\n    * @param _owner The address to query the the balance of.\n    * @return An uint256 representing the amount owned by the passed address.\n    */\n    function balanceOf(address _owner) public view returns (uint256 balance) {\n        return balances[_owner];\n    }\n\n    /**\n     * @dev Calculate the reward\n     * @param _mineHost address Person who's money is being stolen\n     * @return uint256 Returns the amount to reward\n     */\n    function calculateAmountToReceive(address _mineHost) private view returns (uint256) {\n        if (_mineHost == government) return baseWage;\n\n        uint256 amountToRecieve = balances[_mineHost];\n        uint256 baseReward = amountToRecieve * 1 / 100;\n        uint256 maxAddition = amountToRecieve * 99 / 100;\n        uint256 addition = (msg.value < maxAddition) ? msg.value/buyPrice : maxAddition;\n        uint256 reward = baseReward + addition;\n        if (reward > amountToRecieve) return amountToRecieve;\n\n        return reward;\n    }\n\n    /**\n     * @dev Proof of work to be done for mining\n     * @param _mineHost address address being mined\n     * @param _nonce uint\n     * @return reward uint256 The amount rewarded\n     */\n    function mine(address _mineHost, uint _nonce) private returns (uint256 reward) {\n\n        /* get the mining variables */\n        uint256 difficulty = getDifficultyForMine(_mineHost);\n        uint timeOfLastMine = getTimeOfLastMine(_mineHost);\n\n        bytes32 n = keccak256(_nonce, currentChallenge); // generate random hash based on input\n        if (n > bytes32(difficulty)) revert();\n\n        uint timeSinceLastMine = (now - timeOfLastMine); // Calculate time since last reward\n        if (timeSinceLastMine < 5 seconds) revert(); // Do not reward too quickly\n\n        reward = calculateAmountToReceive(_mineHost);\n\n        transferFrom(_mineHost, msg.sender, reward); // reward to winner grows over time\n\n        difficulty = difficulty * timeSinceLastMine / 10 minutes + 1; // Adjusts the difficulty\n        updateDifficultyForMine(difficulty, _mineHost);\n\n        currentChallenge = keccak256(_nonce, currentChallenge, block.blockhash(block.number - 1)); // Save hash for next proof\n\n        return reward;\n    }\n\n    /**\n     * @dev Do proof of work to mine from the government address\n     * @param _nonce uint\n     * @return reward uint256 The amount rewarded\n     */\n    function GetPaid(uint _nonce) public returns (uint256 reward) {\n        /* Cancel Mine */\n        if (msg.sender == government) revert(); // Government won't pay itself\n        if (balances[government] == 0) revert(); // Government is out of money\n\n        /* mine */\n        reward = mine(government, _nonce);\n        timeOfLastPayday = now;\n\n        /* Update who's rich */\n        if (balances[msg.sender] >= wealthyMin) markAsRich(msg.sender);\n        if (balances[msg.sender] > kingMin) king = msg.sender; // msg.sender is now king?\n\n        Payday(government, msg.sender, reward); // execute an event reflecting the change\n\n        return reward;\n    }\n\n    /**\n     * @dev Do proof of work to mine from a richDudes address\n     * @param _nonce uint\n     * @return reward uint256 The amount rewarded\n     */\n    function TakeFromTheRich(uint _nonce) public payable returns (uint256 reward) {\n        /* Cancel mine */\n        if (isMarkedRich(msg.sender) == true) revert(); // Rich can't steal from the rich\n        if (richDudes.length < 1) revert(); // There's no rich dudes\n\n        address richDude = richDudes[now % richDudes.length]; // get a rich dude\n\n        /* mine */\n        reward = mine(richDude, _nonce);\n        timeOfLastRobbery = now;\n\n        /* Update who's rich */\n        if (balances[msg.sender] >= wealthyMin) markAsRich(msg.sender);\n        if (balances[richDude] < wealthyMin) unmarkRichDude(richDude);       // Rich dude is no longer wealthy?\n        if (richDude == king && balances[richDude] < totalSupply * 50 / 100) king = 0x0; // Recipient is now wealthy?\n        if (balances[msg.sender] > totalSupply * 50 / 100) king = msg.sender; // msg.sender is now king?\n\n        /* send the ether to the rich dude */\n        richDude.transfer(msg.value);\n\n        Robbery(richDude, msg.sender, reward); // execute an event reflecting the change\n\n        return reward;\n    }\n\n    /**\n     * @dev Determine if address is on the rich list\n     * @param _address address\n     * @return bool if _address is on the list or not\n     */\n    function isMarkedRich(address _address) private view returns (bool) {\n        if (wealthyTime[_address] > 0) return true;\n\n        return false;\n    }\n\n    /**\n    * @dev Add address to list of richDudes\n    * @param _address address The address to be added to richDudes array\n    * @return bool returns if address was added\n    */\n    function markAsRich(address _address) private returns (bool) {\n        if (isMarkedRich(_address)) return true;\n\n        wealthyTime[_address] = now;\n        richDudes.push(_address);\n\n        return true;\n    }\n\n    /**\n    * @dev Remove address from list of richDudes\n    * @param _address address The address to be removed from richDudes array\n    * @return bool returns if address was deleted\n    */\n    function unmarkRichDude(address _address) private returns (bool) {\n        /* find where address is in rich array */\n        for (uint x = 0; x < richDudes.length; x++) {\n            if (richDudes[x] == _address) {\n                uint index = x;\n            } else {\n                return false;\n            }\n        }\n\n        richDudes[index] = richDudes[richDudes.length-1];\n\n        delete richDudes[richDudes.length-1];\n        richDudes.length--;\n        wealthyTime[_address] = 0;\n\n        return true;\n    }\n\n    /**\n    * @dev Tax a transaction\n    * @param _taxPayer address The address being taxed\n    * @param _value uint256 amount of tokens being taxed\n    */\n    function tax(address _taxPayer, uint256 _value) private returns (bool){\n        address taxCollector = (king == 0x0) ? government : king;\n\n        /* Check if no tax */\n        if (_taxPayer == taxCollector) return true; // Government won't pay itself\n        if (taxPercent == 0) return true;            // Don't tax if 0 tax percent\n        if (taxCollector == 0x0) return true;       // Don't tax if no taxCollector\n\n        /* calculate amount to tax */\n        uint256 amountToTax = _value * taxPercent / 100;\n        if (amountToTax == 0 && taxPercent > 0) amountToTax = 1;    // Minimum tax of 1\n\n        /* transfer from tax payer to tax collector */\n        transferFrom(_taxPayer, taxCollector, amountToTax);\n\n        Tax(_taxPayer, taxCollector, amountToTax);\n\n        return true;\n    }\n\n    /**\n    * @dev Transfers token from one address to another\n    * @param _from address The address where tokens are deducted\n    * @param _to address The address where tokens are added to\n    * @param _value uint256 amount of tokens to be transferred\n    */\n    function transferFrom(address _from, address _to, uint256 _value) private returns (bool) {\n        /* make sure user can pay for gas */\n        if (msg.sender.balance < minBalanceForAccounts) {\n            sell((minBalanceForAccounts - msg.sender.balance) / sellPrice);\n        }\n\n        if (_to == 0x0) revert();                               // Prevent transfer to 0x0 address. Use burn() instead\n        if (balances[_from] < _value) revert();           // Check if the sender has enough\n        if (balances[_to].add(_value) < balances[_to]) revert(); // Check for overflows\n        balances[_to] = balances[_to].add(_value);\n        balances[_from] = balances[_from].sub(_value);\n        if (balances[_to] >= eliteMin && elitesTime[_to] == 0) {\n          elitesTime[_to] = now;\n          elites.push(_to);\n          Elite(_to);\n        }\n\n        return true;\n    }\n\n    /**\n    * @dev transfer token for a specified address\n    * @param _to address The address to transfer to.\n    * @param _value uint256 The amount to be transferred.\n    */\n    function transfer(address _to, uint256 _value) public returns (bool) {\n        transferFrom(msg.sender, _to, _value);\n\n        tax(msg.sender, _value);\n\n        if (balances[msg.sender] < wealthyMin) unmarkRichDude(msg.sender); // taxPayer is no longer wealthy?\n        if (balances[_to] >= wealthyMin) markAsRich(_to); // Recipient is now wealthy?\n        if (msg.sender == king && balances[msg.sender] < totalSupply * 50 / 100) king = 0x0; // Recipient is now wealthy?\n\n        Transfer(msg.sender, _to, _value);\n\n        return true;\n    }\n\n    /**\n    * @dev Exchange ether for tokens with the contract\n    * @return amount uint256 Amount of tokens recieving\n    */\n    function buyRobinhoodCoin() public payable returns (uint256 amount) {\n        amount = msg.value / buyPrice;\n\n        require(balances[this] >= amount);\n\n        /* transfer tokens */\n        balances[msg.sender] += amount;\n        balances[this] -= amount;\n\n        Transfer(this, msg.sender, amount);\n\n        return amount;\n    }\n\n    /**\n    * @dev Exchange tokens for ether with the contract\n    * @param amount uint256 amount of tokens being exchanged\n    * @return _weiGained uint256 amount of ether receiving\n    */\n    function sell(uint256 amount) private returns (uint256 _weiGained) {\n        require(balances[msg.sender] >= amount);\n\n        /* transfer tokens */\n        balances[this] += amount;\n        balances[msg.sender] -= amount;\n\n        /* transfer ether from contract balance to msg.sender */\n        _weiGained = amount * sellPrice;\n        require(msg.sender.send(_weiGained));\n\n        Transfer(msg.sender, this, amount);\n\n        return _weiGained;\n    }\n\n    /**\n    * @dev Amount of ether to withdraw from contract in wei\n    * @return amount uint256 Amount of ether in wei\n    */\n    function withdrawEther(uint256 _wei) public onlyOwner {\n        require(msg.sender.send(_wei));\n    }\n\n    /**\n    * @dev get number of addresses in richDudes array\n    * @return number of addresses in richDudes\n    */\n    function getRichDudesCount() public view returns (uint) {\n        return richDudes.length;\n    }\n\n    /**\n    * @dev get number of addresses in elites array\n    * @return number of addresses in elites\n    */\n    function getElitesCount() public view returns (uint) {\n        return elites.length;\n    }\n\n    /**\n    * @dev get role of an address\n    * @param _address address address to be checked\n    * @return role string\n    */\n    function getRole(address _address) public view returns (string) {\n        if (_address == government) return \"government\";\n        if (_address == king) return \"king\";\n        if (elitesTime[_address] != 0) return \"elite\";\n        if (wealthyTime[_address] != 0) return \"wealthy\";\n\n        return \"peasant\";\n    }\n\n    /**\n    * @dev Get difficulty for mine\n    * @param _mineHost address Address of mine\n    * @return difficulty uint256 difficulty for mining\n    */\n    function getDifficultyForMine(address _mineHost) private view returns (uint256 difficulty) {\n        if (_mineHost == government) {\n            return paydayDifficulty;\n        } else if (isMarkedRich(_mineHost)) {\n            return robberyDifficulty;\n        } else {\n            revert();\n        }\n    }\n\n    /**\n    * @dev Get Time of last mine event\n    * @param _mineHost address Address of mine\n    * @return time uint256 Time last mined\n    */\n    function getTimeOfLastMine(address _mineHost) private view returns (uint time) {\n        if (_mineHost == government) {\n            return timeOfLastPayday;\n        } else if (isMarkedRich(_mineHost)) {\n            return timeOfLastRobbery;\n        } else {\n            revert();\n        }\n    }\n\n    /**\n    * @dev Update difficulty for mine\n    * @param _difficulty uint256 Address of mine\n    * @param _mineHost address Address of mine\n    */\n    function updateDifficultyForMine(uint256 _difficulty, address _mineHost) private {\n        if (_mineHost == government) {\n            paydayDifficulty = _difficulty;\n        } else if (isMarkedRich(_mineHost)) {\n            robberyDifficulty = _difficulty;\n        } else {\n            revert();\n        }\n    }\n\n    /**\n    * =======\n    * Setters\n    * =======\n    */\n\n    /**\n     * @dev Throws if called by any account other than the owner or king.\n     */\n    modifier ownerOrKing() {\n      require(msg.sender == owner || msg.sender == king);\n      _;\n    }\n\n    /**\n    * @dev set prices that the coin can be exchanged for with the contract\n    * @param _sellPrice uint256\n    * @param _buyPrice uint256\n    */\n    function setPrices(uint256 _sellPrice, uint256 _buyPrice) public onlyOwner {\n        sellPrice = _sellPrice;\n        buyPrice = _buyPrice;\n    }\n\n    /**\n    * @dev Set the percentage taxed on transfer\n    * @param _newTaxPercent uint Percent to be taxed\n    */\n    function setTaxPercent(uint _newTaxPercent) public ownerOrKing {\n        if (_newTaxPercent < 0 || _newTaxPercent > 100) revert();\n        taxPercent = _newTaxPercent;\n    }\n\n    /**\n    * @dev Set the minimum balance of ether required for accounts in finney\n    * @param _minBalance uint256 minimum balance in finney\n    */\n    function setMinBalance(uint256 _minBalance) public onlyOwner {\n        minBalanceForAccounts = _minBalance * 1 finney;\n    }\n\n}\n",
  "sourcePath": "/Users/shakezula/Development/RobinhoodCoin-1/contracts/RobinhoodCoin.sol",
  "compiler": {
    "name": "solc",
    "version": "0.4.18+commit.9cf6e910.Emscripten.clang"
  },
  "schemaVersion": "1.0.1",
  "updatedAt": "2018-02-17T05:01:01.130Z"
}